{
  "contractName": "Election",
  "abi": [
    {
      "inputs": [
        {
          "internalType": "uint256",
          "name": "_start_date",
          "type": "uint256"
        },
        {
          "internalType": "uint256",
          "name": "_end_date",
          "type": "uint256"
        },
        {
          "internalType": "uint256",
          "name": "_min_consensus",
          "type": "uint256"
        },
        {
          "internalType": "string[]",
          "name": "_candidates",
          "type": "string[]"
        },
        {
          "internalType": "address[]",
          "name": "_oracles",
          "type": "address[]"
        },
        {
          "internalType": "uint256",
          "name": "_oracle_to_be_voter_address_repo",
          "type": "uint256"
        }
      ],
      "stateMutability": "nonpayable",
      "type": "constructor"
    },
    {
      "anonymous": false,
      "inputs": [
        {
          "indexed": false,
          "internalType": "string",
          "name": "_voters_id",
          "type": "string"
        },
        {
          "indexed": false,
          "internalType": "address",
          "name": "_voter_address",
          "type": "address"
        }
      ],
      "name": "ValidateVoters",
      "type": "event"
    },
    {
      "inputs": [
        {
          "internalType": "uint256",
          "name": "",
          "type": "uint256"
        }
      ],
      "name": "candidates",
      "outputs": [
        {
          "internalType": "string",
          "name": "name",
          "type": "string"
        },
        {
          "internalType": "uint256",
          "name": "vote_count",
          "type": "uint256"
        }
      ],
      "stateMutability": "view",
      "type": "function",
      "constant": true
    },
    {
      "inputs": [],
      "name": "designated_voter_address_repo",
      "outputs": [
        {
          "internalType": "address",
          "name": "",
          "type": "address"
        }
      ],
      "stateMutability": "view",
      "type": "function",
      "constant": true
    },
    {
      "inputs": [],
      "name": "end_date",
      "outputs": [
        {
          "internalType": "uint256",
          "name": "",
          "type": "uint256"
        }
      ],
      "stateMutability": "view",
      "type": "function",
      "constant": true
    },
    {
      "inputs": [],
      "name": "is_running",
      "outputs": [
        {
          "internalType": "bool",
          "name": "",
          "type": "bool"
        }
      ],
      "stateMutability": "view",
      "type": "function",
      "constant": true
    },
    {
      "inputs": [],
      "name": "min_consensus",
      "outputs": [
        {
          "internalType": "uint256",
          "name": "",
          "type": "uint256"
        }
      ],
      "stateMutability": "view",
      "type": "function",
      "constant": true
    },
    {
      "inputs": [
        {
          "internalType": "uint256",
          "name": "",
          "type": "uint256"
        }
      ],
      "name": "oracles",
      "outputs": [
        {
          "internalType": "address",
          "name": "",
          "type": "address"
        }
      ],
      "stateMutability": "view",
      "type": "function",
      "constant": true
    },
    {
      "inputs": [],
      "name": "owner",
      "outputs": [
        {
          "internalType": "address",
          "name": "",
          "type": "address"
        }
      ],
      "stateMutability": "view",
      "type": "function",
      "constant": true
    },
    {
      "inputs": [],
      "name": "start_date",
      "outputs": [
        {
          "internalType": "uint256",
          "name": "",
          "type": "uint256"
        }
      ],
      "stateMutability": "view",
      "type": "function",
      "constant": true
    },
    {
      "inputs": [
        {
          "internalType": "string",
          "name": "",
          "type": "string"
        }
      ],
      "name": "voters",
      "outputs": [
        {
          "internalType": "bool",
          "name": "exist",
          "type": "bool"
        },
        {
          "internalType": "address",
          "name": "voter_address",
          "type": "address"
        },
        {
          "internalType": "bool",
          "name": "validated",
          "type": "bool"
        },
        {
          "internalType": "uint8",
          "name": "vote_count",
          "type": "uint8"
        },
        {
          "internalType": "uint256",
          "name": "vote_for",
          "type": "uint256"
        }
      ],
      "stateMutability": "view",
      "type": "function",
      "constant": true
    },
    {
      "inputs": [
        {
          "internalType": "string",
          "name": "voter_id",
          "type": "string"
        },
        {
          "internalType": "bool",
          "name": "valid",
          "type": "bool"
        },
        {
          "internalType": "address",
          "name": "_voter_address",
          "type": "address"
        }
      ],
      "name": "validate_voter",
      "outputs": [],
      "stateMutability": "nonpayable",
      "type": "function"
    },
    {
      "inputs": [
        {
          "internalType": "address",
          "name": "oracle",
          "type": "address"
        }
      ],
      "name": "add_oracle",
      "outputs": [],
      "stateMutability": "nonpayable",
      "type": "function"
    },
    {
      "inputs": [
        {
          "internalType": "uint256",
          "name": "_index_of_oracles",
          "type": "uint256"
        }
      ],
      "name": "change_designated_address_repo",
      "outputs": [],
      "stateMutability": "nonpayable",
      "type": "function"
    },
    {
      "inputs": [],
      "name": "start_voting",
      "outputs": [],
      "stateMutability": "nonpayable",
      "type": "function"
    },
    {
      "inputs": [],
      "name": "end_voting",
      "outputs": [],
      "stateMutability": "nonpayable",
      "type": "function"
    },
    {
      "inputs": [
        {
          "internalType": "string",
          "name": "voter_id",
          "type": "string"
        }
      ],
      "name": "add_voters",
      "outputs": [],
      "stateMutability": "nonpayable",
      "type": "function"
    },
    {
      "inputs": [
        {
          "internalType": "string",
          "name": "voter_id",
          "type": "string"
        },
        {
          "internalType": "uint256",
          "name": "_vote_for",
          "type": "uint256"
        }
      ],
      "name": "vote",
      "outputs": [],
      "stateMutability": "nonpayable",
      "type": "function"
    },
    {
      "inputs": [
        {
          "internalType": "string",
          "name": "voter_id",
          "type": "string"
        }
      ],
      "name": "get_my_vote",
      "outputs": [
        {
          "internalType": "bool",
          "name": "validated",
          "type": "bool"
        },
        {
          "internalType": "uint256",
          "name": "vote_for",
          "type": "uint256"
        }
      ],
      "stateMutability": "view",
      "type": "function",
      "constant": true
    }
  ],
  "bytecode": "0x608060405260008060006101000a81548160ff0219169083151502179055503480156200002b57600080fd5b506040516200359c3803806200359c8339818101604052810190620000519190620005fe565b33600060016101000a81548173ffffffffffffffffffffffffffffffffffffffff021916908373ffffffffffffffffffffffffffffffffffffffff1602179055508560078190555084600881905550836003819055508160019080519060200190620000bf929190620002c0565b50818181518110620000fa577f4e487b7100000000000000000000000000000000000000000000000000000000600052603260045260246000fd5b6020026020010151600260006101000a81548173ffffffffffffffffffffffffffffffffffffffff021916908373ffffffffffffffffffffffffffffffffffffffff160217905550600460405180604001604052806040518060400160405280600581526020017f456d7074790000000000000000000000000000000000000000000000000000008152508152602001600081525090806001815401808255809150506001900390600052602060002090600202016000909190919091506000820151816000019080519060200190620001d69291906200034f565b5060208201518160010155505060005b8351811015620002b3576004604051806040016040528086848151811062000237577f4e487b7100000000000000000000000000000000000000000000000000000000600052603260045260246000fd5b60200260200101518152602001600081525090806001815401808255809150506001900390600052602060002090600202016000909190919091506000820151816000019080519060200190620002909291906200034f565b506020820151816001015550508080620002aa9062000863565b915050620001e6565b5050505050505062000983565b8280548282559060005260206000209081019282156200033c579160200282015b828111156200033b5782518260006101000a81548173ffffffffffffffffffffffffffffffffffffffff021916908373ffffffffffffffffffffffffffffffffffffffff16021790555091602001919060010190620002e1565b5b5090506200034b9190620003e0565b5090565b8280546200035d90620007f7565b90600052602060002090601f016020900481019282620003815760008555620003cd565b82601f106200039c57805160ff1916838001178555620003cd565b82800160010185558215620003cd579182015b82811115620003cc578251825591602001919060010190620003af565b5b509050620003dc9190620003e0565b5090565b5b80821115620003fb576000816000905550600101620003e1565b5090565b6000620004166200041084620006ef565b620006c6565b905080838252602082019050828560208602820111156200043657600080fd5b60005b858110156200046a57816200044f888262000549565b84526020840193506020830192505060018101905062000439565b5050509392505050565b60006200048b62000485846200071e565b620006c6565b90508083825260208201905082856020860282011115620004ab57600080fd5b60005b85811015620004fa57815167ffffffffffffffff811115620004cf57600080fd5b808601620004de8982620005ba565b85526020850194506020840193505050600181019050620004ae565b5050509392505050565b60006200051b62000515846200074d565b620006c6565b9050828152602081018484840111156200053457600080fd5b62000541848285620007c1565b509392505050565b6000815190506200055a816200094f565b92915050565b600082601f8301126200057257600080fd5b815162000584848260208601620003ff565b91505092915050565b600082601f8301126200059f57600080fd5b8151620005b184826020860162000474565b91505092915050565b600082601f830112620005cc57600080fd5b8151620005de84826020860162000504565b91505092915050565b600081519050620005f88162000969565b92915050565b60008060008060008060c087890312156200061857600080fd5b60006200062889828a01620005e7565b96505060206200063b89828a01620005e7565b95505060406200064e89828a01620005e7565b945050606087015167ffffffffffffffff8111156200066c57600080fd5b6200067a89828a016200058d565b935050608087015167ffffffffffffffff8111156200069857600080fd5b620006a689828a0162000560565b92505060a0620006b989828a01620005e7565b9150509295509295509295565b6000620006d2620006e5565b9050620006e082826200082d565b919050565b6000604051905090565b600067ffffffffffffffff8211156200070d576200070c6200090f565b5b602082029050602081019050919050565b600067ffffffffffffffff8211156200073c576200073b6200090f565b5b602082029050602081019050919050565b600067ffffffffffffffff8211156200076b576200076a6200090f565b5b62000776826200093e565b9050602081019050919050565b6000620007908262000797565b9050919050565b600073ffffffffffffffffffffffffffffffffffffffff82169050919050565b6000819050919050565b60005b83811015620007e1578082015181840152602081019050620007c4565b83811115620007f1576000848401525b50505050565b600060028204905060018216806200081057607f821691505b60208210811415620008275762000826620008e0565b5b50919050565b62000838826200093e565b810181811067ffffffffffffffff821117156200085a57620008596200090f565b5b80604052505050565b60006200087082620007b7565b91507fffffffffffffffffffffffffffffffffffffffffffffffffffffffffffffffff821415620008a657620008a5620008b1565b5b600182019050919050565b7f4e487b7100000000000000000000000000000000000000000000000000000000600052601160045260246000fd5b7f4e487b7100000000000000000000000000000000000000000000000000000000600052602260045260246000fd5b7f4e487b7100000000000000000000000000000000000000000000000000000000600052604160045260246000fd5b6000601f19601f8301169050919050565b6200095a8162000783565b81146200096657600080fd5b50565b6200097481620007b7565b81146200098057600080fd5b50565b612c0980620009936000396000f3fe608060405234801561001057600080fd5b506004361061010b5760003560e01c80635b69a7d8116100a2578063a067a43011610071578063a067a430146102ae578063a6385803146102ca578063b24aa34e146102e6578063bbca3256146102f0578063c36652611461030c5761010b565b80635b69a7d814610225578063615a72cf14610255578063806a145f1461025f5780638da5cb5b146102905761010b565b80633477ee2e116100de5780633477ee2e14610186578063483579db146101b75780634c9dfe81146101d357806353fa2e64146101f15761010b565b806319d0376214610110578063237d44551461012e57806327d795d71461014a57806333bbae9314610168575b600080fd5b61011861032a565b6040516101259190612179565b60405180910390f35b61014860048036038101906101439190611c47565b61033b565b005b61015261047f565b60405161015f91906124b0565b60405180910390f35b610170610485565b60405161017d91906124b0565b60405180910390f35b6101a0600480360381019061019b9190611d6c565b61048b565b6040516101ae929190612240565b60405180910390f35b6101d160048036038101906101cc9190611cb1565b610547565b005b6101db610971565b6040516101e891906124b0565b60405180910390f35b61020b60048036038101906102069190611c70565b610977565b60405161021c959493929190612194565b60405180910390f35b61023f600480360381019061023a9190611d6c565b610a0a565b60405161024c919061215e565b60405180910390f35b61025d610a49565b005b61027960048036038101906102749190611c70565b610b42565b6040516102879291906121e7565b60405180910390f35b610298610b9f565b6040516102a5919061215e565b60405180910390f35b6102c860048036038101906102c39190611c70565b610bc5565b005b6102e460048036038101906102df9190611d18565b611041565b005b6102ee611619565b005b61030a60048036038101906103059190611d6c565b61170c565b005b610314611844565b604051610321919061215e565b60405180910390f35b60008054906101000a900460ff1681565b600060019054906101000a900473ffffffffffffffffffffffffffffffffffffffff1673ffffffffffffffffffffffffffffffffffffffff163373ffffffffffffffffffffffffffffffffffffffff16146103cb576040517f08c379a00000000000000000000000000000000000000000000000000000000081526004016103c290612430565b60405180910390fd5b60008054906101000a900460ff1615610419576040517f08c379a0000000000000000000000000000000000000000000000000000000008152600401610410906122b0565b60405180910390fd5b6001819080600181540180825580915050600190039060005260206000200160009091909190916101000a81548173ffffffffffffffffffffffffffffffffffffffff021916908373ffffffffffffffffffffffffffffffffffffffff16021790555050565b60075481565b60085481565b6004818154811061049b57600080fd5b90600052602060002090600202016000915090508060000180546104be9061267e565b80601f01602080910402602001604051908101604052809291908181526020018280546104ea9061267e565b80156105375780601f1061050c57610100808354040283529160200191610537565b820191906000526020600020905b81548152906001019060200180831161051a57829003601f168201915b5050505050908060010154905082565b6000805b6001805490508110156106085760018181548110610592577f4e487b7100000000000000000000000000000000000000000000000000000000600052603260045260246000fd5b9060005260206000200160009054906101000a900473ffffffffffffffffffffffffffffffffffffffff1673ffffffffffffffffffffffffffffffffffffffff163373ffffffffffffffffffffffffffffffffffffffff1614156105f557600191505b8080610600906126e1565b91505061054b565b5080610649576040517f08c379a0000000000000000000000000000000000000000000000000000000008152600401610640906123f0565b60405180910390fd5b60008054906101000a900460ff16610696576040517f08c379a000000000000000000000000000000000000000000000000000000000815260040161068d90612450565b60405180910390fd5b6007544210156106db576040517f08c379a00000000000000000000000000000000000000000000000000000000081526004016106d290612410565b60405180910390fd5b600854421061071f576040517f08c379a000000000000000000000000000000000000000000000000000000000815260040161071690612490565b60405180910390fd5b600115156006856040516107339190612130565b908152602001604051809103902060010160003373ffffffffffffffffffffffffffffffffffffffff1673ffffffffffffffffffffffffffffffffffffffff16815260200190815260200160002060009054906101000a900460ff16151514156107d2576040517f08c379a00000000000000000000000000000000000000000000000000000000081526004016107c9906122f0565b60405180910390fd5b826006856040516107e39190612130565b908152602001604051809103902060010160003373ffffffffffffffffffffffffffffffffffffffff1673ffffffffffffffffffffffffffffffffffffffff16815260200190815260200160002060006101000a81548160ff02191690831515021790555060035461087460068660405161085e9190612130565b908152602001604051809103902060010161186a565b106108b457600160068560405161088b9190612130565b908152602001604051809103902060000160156101000a81548160ff0219169083151502179055505b600260009054906101000a900473ffffffffffffffffffffffffffffffffffffffff1673ffffffffffffffffffffffffffffffffffffffff163373ffffffffffffffffffffffffffffffffffffffff16141561096b578160068560405161091b9190612130565b908152602001604051809103902060000160016101000a81548173ffffffffffffffffffffffffffffffffffffffff021916908373ffffffffffffffffffffffffffffffffffffffff1602179055505b50505050565b60035481565b6006818051602081018201805184825260208301602085012081835280955050505050506000915090508060000160009054906101000a900460ff16908060000160019054906101000a900473ffffffffffffffffffffffffffffffffffffffff16908060000160159054906101000a900460ff16908060020160009054906101000a900460ff16908060030154905085565b60018181548110610a1a57600080fd5b906000526020600020016000915054906101000a900473ffffffffffffffffffffffffffffffffffffffff1681565b6007544211610a8d576040517f08c379a0000000000000000000000000000000000000000000000000000000008152600401610a8490612410565b60405180910390fd5b6008544211610ad1576040517f08c379a0000000000000000000000000000000000000000000000000000000008152600401610ac890612290565b60405180910390fd5b60008054906101000a900460ff16610b1e576040517f08c379a0000000000000000000000000000000000000000000000000000000008152600401610b15906123b0565b60405180910390fd5b60008060006101000a81548160ff021916908315150217905550610b40611963565b565b600080600683604051610b559190612130565b908152602001604051809103902060000160159054906101000a900460ff16600684604051610b849190612130565b90815260200160405180910390206003015491509150915091565b600060019054906101000a900473ffffffffffffffffffffffffffffffffffffffff1681565b600060019054906101000a900473ffffffffffffffffffffffffffffffffffffffff1673ffffffffffffffffffffffffffffffffffffffff163373ffffffffffffffffffffffffffffffffffffffff161415610c56576040517f08c379a0000000000000000000000000000000000000000000000000000000008152600401610c4d90612390565b60405180910390fd5b60005b600180549050811015610d4c5760018181548110610ca0577f4e487b7100000000000000000000000000000000000000000000000000000000600052603260045260246000fd5b9060005260206000200160009054906101000a900473ffffffffffffffffffffffffffffffffffffffff1673ffffffffffffffffffffffffffffffffffffffff163373ffffffffffffffffffffffffffffffffffffffff161415610d39576040517f08c379a0000000000000000000000000000000000000000000000000000000008152600401610d3090612330565b60405180910390fd5b8080610d44906126e1565b915050610c59565b5060008054906101000a900460ff16610d9a576040517f08c379a0000000000000000000000000000000000000000000000000000000008152600401610d9190612450565b60405180910390fd5b600754421015610ddf576040517f08c379a0000000000000000000000000000000000000000000000000000000008152600401610dd690612410565b60405180910390fd5b6008544210610e23576040517f08c379a0000000000000000000000000000000000000000000000000000000008152600401610e1a90612490565b60405180910390fd5b600681604051610e339190612130565b908152602001604051809103902060000160009054906101000a900460ff1615610e92576040517f08c379a0000000000000000000000000000000000000000000000000000000008152600401610e8990612350565b60405180910390fd5b6001600682604051610ea49190612130565b908152602001604051809103902060000160006101000a81548160ff0219169083151502179055506000600682604051610ede9190612130565b908152602001604051809103902060000160016101000a81548173ffffffffffffffffffffffffffffffffffffffff021916908373ffffffffffffffffffffffffffffffffffffffff1602179055506000600682604051610f3f9190612130565b908152602001604051809103902060000160156101000a81548160ff0219169083151502179055506001600682604051610f799190612130565b908152602001604051809103902060020160006101000a81548160ff021916908360ff1602179055506000600682604051610fb49190612130565b908152602001604051809103902060030181905550600581908060018154018082558091505060019003906000526020600020016000909190919091509080519060200190611004929190611afd565b507f413f76a0268d23c71aedae0abda8bde025aa23b792e929820957300423f564988133604051611036929190612210565b60405180910390a150565b60008054906101000a900460ff1661108e576040517f08c379a000000000000000000000000000000000000000000000000000000000815260040161108590612450565b60405180910390fd5b6007544210156110d3576040517f08c379a00000000000000000000000000000000000000000000000000000000081526004016110ca90612410565b60405180910390fd5b6008544210611117576040517f08c379a000000000000000000000000000000000000000000000000000000000815260040161110e90612490565b60405180910390fd5b600060019054906101000a900473ffffffffffffffffffffffffffffffffffffffff1673ffffffffffffffffffffffffffffffffffffffff163373ffffffffffffffffffffffffffffffffffffffff1614156111a8576040517f08c379a000000000000000000000000000000000000000000000000000000000815260040161119f90612390565b60405180910390fd5b60005b60018054905081101561129e57600181815481106111f2577f4e487b7100000000000000000000000000000000000000000000000000000000600052603260045260246000fd5b9060005260206000200160009054906101000a900473ffffffffffffffffffffffffffffffffffffffff1673ffffffffffffffffffffffffffffffffffffffff163373ffffffffffffffffffffffffffffffffffffffff16141561128b576040517f08c379a000000000000000000000000000000000000000000000000000000000815260040161128290612330565b60405180910390fd5b8080611296906126e1565b9150506111ab565b506006826040516112af9190612130565b908152602001604051809103902060000160009054906101000a900460ff1661130d576040517f08c379a0000000000000000000000000000000000000000000000000000000008152600401611304906122d0565b60405180910390fd5b600073ffffffffffffffffffffffffffffffffffffffff166006836040516113359190612130565b908152602001604051809103902060000160019054906101000a900473ffffffffffffffffffffffffffffffffffffffff1673ffffffffffffffffffffffffffffffffffffffff1614156113be576040517f08c379a00000000000000000000000000000000000000000000000000000000081526004016113b590612270565b60405180910390fd5b3373ffffffffffffffffffffffffffffffffffffffff166006836040516113e59190612130565b908152602001604051809103902060000160019054906101000a900473ffffffffffffffffffffffffffffffffffffffff1673ffffffffffffffffffffffffffffffffffffffff161461146d576040517f08c379a000000000000000000000000000000000000000000000000000000000815260040161146490612370565b60405180910390fd5b600160068360405161147f9190612130565b908152602001604051809103902060020160009054906101000a900460ff1660ff1610156114e2576040517f08c379a00000000000000000000000000000000000000000000000000000000081526004016114d9906123d0565b60405180910390fd5b600081101580156114f7575060048054905081105b611536576040517f08c379a000000000000000000000000000000000000000000000000000000000815260040161152d90612310565b60405180910390fd5b60016006836040516115489190612130565b908152602001604051809103902060020160008282829054906101000a900460ff1661157491906125b3565b92506101000a81548160ff021916908360ff1602179055508060068360405161159d9190612130565b9081526020016040518091039020600301819055506001600482815481106115ee577f4e487b7100000000000000000000000000000000000000000000000000000000600052603260045260246000fd5b9060005260206000209060020201600101600082825461160e919061255d565b925050819055505050565b60075442101561165e576040517f08c379a000000000000000000000000000000000000000000000000000000000815260040161165590612410565b60405180910390fd5b60085442106116a2576040517f08c379a000000000000000000000000000000000000000000000000000000000815260040161169990612490565b60405180910390fd5b60008054906101000a900460ff16156116f0576040517f08c379a00000000000000000000000000000000000000000000000000000000081526004016116e790612470565b60405180910390fd5b60016000806101000a81548160ff021916908315150217905550565b600060019054906101000a900473ffffffffffffffffffffffffffffffffffffffff1673ffffffffffffffffffffffffffffffffffffffff163373ffffffffffffffffffffffffffffffffffffffff161461179c576040517f08c379a000000000000000000000000000000000000000000000000000000000815260040161179390612430565b60405180910390fd5b600181815481106117d6577f4e487b7100000000000000000000000000000000000000000000000000000000600052603260045260246000fd5b9060005260206000200160009054906101000a900473ffffffffffffffffffffffffffffffffffffffff16600260006101000a81548173ffffffffffffffffffffffffffffffffffffffff021916908373ffffffffffffffffffffffffffffffffffffffff16021790555050565b600260009054906101000a900473ffffffffffffffffffffffffffffffffffffffff1681565b6000806000905060005b60018054905081101561195957836000600183815481106118be577f4e487b7100000000000000000000000000000000000000000000000000000000600052603260045260246000fd5b9060005260206000200160009054906101000a900473ffffffffffffffffffffffffffffffffffffffff1673ffffffffffffffffffffffffffffffffffffffff1673ffffffffffffffffffffffffffffffffffffffff16815260200190815260200160002060009054906101000a900460ff161561194657600182611943919061255d565b91505b8080611951906126e1565b915050611874565b5080915050919050565b60005b6004805490508110156119d7576000600482815481106119af577f4e487b7100000000000000000000000000000000000000000000000000000000600052603260045260246000fd5b90600052602060002090600202016001018190555080806119cf906126e1565b915050611966565b5060005b600580549050811015611afa576000600660058381548110611a26577f4e487b7100000000000000000000000000000000000000000000000000000000600052603260045260246000fd5b90600052602060002001604051611a3d9190612147565b908152602001604051809103902090508060000160009054906101000a900460ff168015611a7957508060000160159054906101000a900460ff165b15611ae65760016004826003015481548110611abe577f4e487b7100000000000000000000000000000000000000000000000000000000600052603260045260246000fd5b90600052602060002090600202016001016000828254611ade919061255d565b925050819055505b508080611af2906126e1565b9150506119db565b50565b828054611b099061267e565b90600052602060002090601f016020900481019282611b2b5760008555611b72565b82601f10611b4457805160ff1916838001178555611b72565b82800160010185558215611b72579182015b82811115611b71578251825591602001919060010190611b56565b5b509050611b7f9190611b83565b5090565b5b80821115611b9c576000816000905550600101611b84565b5090565b6000611bb3611bae846124f0565b6124cb565b905082815260208101848484011115611bcb57600080fd5b611bd684828561263c565b509392505050565b600081359050611bed81612b8e565b92915050565b600081359050611c0281612ba5565b92915050565b600082601f830112611c1957600080fd5b8135611c29848260208601611ba0565b91505092915050565b600081359050611c4181612bbc565b92915050565b600060208284031215611c5957600080fd5b6000611c6784828501611bde565b91505092915050565b600060208284031215611c8257600080fd5b600082013567ffffffffffffffff811115611c9c57600080fd5b611ca884828501611c08565b91505092915050565b600080600060608486031215611cc657600080fd5b600084013567ffffffffffffffff811115611ce057600080fd5b611cec86828701611c08565b9350506020611cfd86828701611bf3565b9250506040611d0e86828701611bde565b9150509250925092565b60008060408385031215611d2b57600080fd5b600083013567ffffffffffffffff811115611d4557600080fd5b611d5185828601611c08565b9250506020611d6285828601611c32565b9150509250929050565b600060208284031215611d7e57600080fd5b6000611d8c84828501611c32565b91505092915050565b611d9e816125e7565b82525050565b611dad816125f9565b82525050565b6000611dbe82612536565b611dc88185612541565b9350611dd881856020860161264b565b611de1816127b7565b840191505092915050565b6000611df782612536565b611e018185612552565b9350611e1181856020860161264b565b80840191505092915050565b60008154611e2a8161267e565b611e348186612552565b94506001821660008114611e4f5760018114611e6057611e93565b60ff19831686528186019350611e93565b611e6985612521565b60005b83811015611e8b57815481890152600182019150602081019050611e6c565b838801955050505b50505092915050565b6000611ea9602183612541565b9150611eb4826127c8565b604082019050919050565b6000611ecc601e83612541565b9150611ed782612817565b602082019050919050565b6000611eef603483612541565b9150611efa82612840565b604082019050919050565b6000611f12601283612541565b9150611f1d8261288f565b602082019050919050565b6000611f35601c83612541565b9150611f40826128b8565b602082019050919050565b6000611f58600e83612541565b9150611f63826128e1565b602082019050919050565b6000611f7b601283612541565b9150611f868261290a565b602082019050919050565b6000611f9e601483612541565b9150611fa982612933565b602082019050919050565b6000611fc1602c83612541565b9150611fcc8261295c565b604082019050919050565b6000611fe4601183612541565b9150611fef826129ab565b602082019050919050565b6000612007601383612541565b9150612012826129d4565b602082019050919050565b600061202a602783612541565b9150612035826129fd565b604082019050919050565b600061204d601d83612541565b915061205882612a4c565b602082019050919050565b6000612070602183612541565b915061207b82612a75565b604082019050919050565b6000612093602a83612541565b915061209e82612ac4565b604082019050919050565b60006120b6601983612541565b91506120c182612b13565b602082019050919050565b60006120d9601783612541565b91506120e482612b3c565b602082019050919050565b60006120fc601e83612541565b915061210782612b65565b602082019050919050565b61211b81612625565b82525050565b61212a8161262f565b82525050565b600061213c8284611dec565b915081905092915050565b60006121538284611e1d565b915081905092915050565b60006020820190506121736000830184611d95565b92915050565b600060208201905061218e6000830184611da4565b92915050565b600060a0820190506121a96000830188611da4565b6121b66020830187611d95565b6121c36040830186611da4565b6121d06060830185612121565b6121dd6080830184612112565b9695505050505050565b60006040820190506121fc6000830185611da4565b6122096020830184612112565b9392505050565b6000604082019050818103600083015261222a8185611db3565b90506122396020830184611d95565b9392505050565b6000604082019050818103600083015261225a8185611db3565b90506122696020830184612112565b9392505050565b6000602082019050818103600083015261228981611e9c565b9050919050565b600060208201905081810360008301526122a981611ebf565b9050919050565b600060208201905081810360008301526122c981611ee2565b9050919050565b600060208201905081810360008301526122e981611f05565b9050919050565b6000602082019050818103600083015261230981611f28565b9050919050565b6000602082019050818103600083015261232981611f4b565b9050919050565b6000602082019050818103600083015261234981611f6e565b9050919050565b6000602082019050818103600083015261236981611f91565b9050919050565b6000602082019050818103600083015261238981611fb4565b9050919050565b600060208201905081810360008301526123a981611fd7565b9050919050565b600060208201905081810360008301526123c981611ffa565b9050919050565b600060208201905081810360008301526123e98161201d565b9050919050565b6000602082019050818103600083015261240981612040565b9050919050565b6000602082019050818103600083015261242981612063565b9050919050565b6000602082019050818103600083015261244981612086565b9050919050565b60006020820190508181036000830152612469816120a9565b9050919050565b60006020820190508181036000830152612489816120cc565b9050919050565b600060208201905081810360008301526124a9816120ef565b9050919050565b60006020820190506124c56000830184612112565b92915050565b60006124d56124e6565b90506124e182826126b0565b919050565b6000604051905090565b600067ffffffffffffffff82111561250b5761250a612788565b5b612514826127b7565b9050602081019050919050565b60008190508160005260206000209050919050565b600081519050919050565b600082825260208201905092915050565b600081905092915050565b600061256882612625565b915061257383612625565b9250827fffffffffffffffffffffffffffffffffffffffffffffffffffffffffffffffff038211156125a8576125a761272a565b5b828201905092915050565b60006125be8261262f565b91506125c98361262f565b9250828210156125dc576125db61272a565b5b828203905092915050565b60006125f282612605565b9050919050565b60008115159050919050565b600073ffffffffffffffffffffffffffffffffffffffff82169050919050565b6000819050919050565b600060ff82169050919050565b82818337600083830152505050565b60005b8381101561266957808201518184015260208101905061264e565b83811115612678576000848401525b50505050565b6000600282049050600182168061269657607f821691505b602082108114156126aa576126a9612759565b5b50919050565b6126b9826127b7565b810181811067ffffffffffffffff821117156126d8576126d7612788565b5b80604052505050565b60006126ec82612625565b91507fffffffffffffffffffffffffffffffffffffffffffffffffffffffffffffffff82141561271f5761271e61272a565b5b600182019050919050565b7f4e487b7100000000000000000000000000000000000000000000000000000000600052601160045260246000fd5b7f4e487b7100000000000000000000000000000000000000000000000000000000600052602260045260246000fd5b7f4e487b7100000000000000000000000000000000000000000000000000000000600052604160045260246000fd5b6000601f19601f8301169050919050565b7f566f7465722061646472657373206973206e6f7420796574207265636569766560008201527f6400000000000000000000000000000000000000000000000000000000000000602082015250565b7f43757272656e742074696d6520697320756e64657220656e642074696d650000600082015250565b7f416464696e67206f7261636c6520616674657220766f74696e6720697320737460008201527f6172746564206973206e6f7420616c6c6f776564000000000000000000000000602082015250565b7f566f746572206973206e6f742065786973740000000000000000000000000000600082015250565b7f416c72656164792076616c6964617465207468697320766f7465727300000000600082015250565b7f496c6c6567616c2063686f696365000000000000000000000000000000000000600082015250565b7f4f7261636c652063616e6e6f7420766f74650000000000000000000000000000600082015250565b7f566f7465727320616c7265616479206578697374000000000000000000000000600082015250565b7f596f7520617265206e6f7420616c6c6f77656420746f20766f746520666f722060008201527f736f6d656f6e6520656c73650000000000000000000000000000000000000000602082015250565b7f4f776e65722063616e6e6f7420766f7465000000000000000000000000000000600082015250565b7f566f7465206973206e6f742072756e6e696e6700000000000000000000000000600082015250565b7f596f7520646f6e2774206861766520616e7920766f746520616c6c6f7765642060008201527f616e796d6f726500000000000000000000000000000000000000000000000000602082015250565b7f46756e6374696f6e2061726520666f72206f7261636c6573206f6e6c79000000600082015250565b7f43757272656e742074696d65206973206265666f72652073746172742074696d60008201527f6500000000000000000000000000000000000000000000000000000000000000602082015250565b7f46756e6374696f6e2061726520666f7220736d61727420636f6e74726163742060008201527f6f776e6572206f6e6c7900000000000000000000000000000000000000000000602082015250565b7f566f74696e67206973206e6f7420737461727465642079657400000000000000600082015250565b7f566f746520697320616c72656164792072756e6e696e67000000000000000000600082015250565b7f43757272656e742074696d6520697320616674657220656e642074696d650000600082015250565b612b97816125e7565b8114612ba257600080fd5b50565b612bae816125f9565b8114612bb957600080fd5b50565b612bc581612625565b8114612bd057600080fd5b5056fea264697066735822122030d1dbec8a514869c9fb60064a9019bc8ded5df6c7ea981603d385eb1967170164736f6c63430008040033",
  "immutableReferences": {},
  "source": "// SPDX-License-Identifier: MIT\r\npragma solidity >=0.8.4;\r\n\r\ncontract Election {\r\n    struct Candidate {\r\n        string name;\r\n        uint256 vote_count;\r\n    }\r\n\r\n    struct Voter {\r\n        bool exist;\r\n        address voter_address;\r\n        bool validated;\r\n        mapping(address => bool) validator_list;\r\n        uint8 vote_count;\r\n        uint256 vote_for;\r\n    }\r\n\r\n    event ValidateVoters(string _voters_id, address _voter_address);\r\n\r\n    bool public is_running = false;\r\n\r\n    address public owner;\r\n    address[] public oracles;\r\n    address public designated_voter_address_repo;\r\n\r\n    uint256 public min_consensus;\r\n\r\n    Candidate[] public candidates;\r\n    string[] voter_list;\r\n    mapping(string => Voter) public voters;\r\n\r\n    uint256 public start_date;\r\n    uint256 public end_date;\r\n\r\n    constructor(\r\n        uint256 _start_date,\r\n        uint256 _end_date,\r\n        uint256 _min_consensus,\r\n        string[] memory _candidates,\r\n        address[] memory _oracles,\r\n        uint256 _oracle_to_be_voter_address_repo\r\n    ) {\r\n        owner = msg.sender;\r\n\r\n        start_date = _start_date;\r\n        end_date = _end_date;\r\n\r\n        min_consensus = _min_consensus;\r\n\r\n        oracles = _oracles;\r\n        designated_voter_address_repo = _oracles[\r\n            _oracle_to_be_voter_address_repo\r\n        ];\r\n\r\n        candidates.push(Candidate(\"Empty\", 0));\r\n        for (uint256 i = 0; i < _candidates.length; i++) {\r\n            candidates.push(Candidate(_candidates[i], 0));\r\n        }\r\n    }\r\n\r\n    modifier oracle_only {\r\n        bool is_msg_oracle = false;\r\n        for (uint256 i = 0; i < oracles.length; i++) {\r\n            if (msg.sender == oracles[i]) {\r\n                is_msg_oracle = true;\r\n            }\r\n        }\r\n        require(is_msg_oracle, \"Function are for oracles only\");\r\n        _;\r\n    }\r\n\r\n    modifier owner_only {\r\n        require(\r\n            msg.sender == owner,\r\n            \"Function are for smart contract owner only\"\r\n        );\r\n        _;\r\n    }\r\n\r\n    modifier voters_only {\r\n        require(msg.sender != owner, \"Owner cannot vote\");\r\n        for (uint256 i = 0; i < oracles.length; i++) {\r\n            require(msg.sender != oracles[i], \"Oracle cannot vote\");\r\n        }\r\n        _;\r\n    }\r\n\r\n    modifier only_started {\r\n        require(is_running, \"Voting is not started yet\");\r\n        require(\r\n            block.timestamp >= start_date,\r\n            \"Current time is before start time\"\r\n        );\r\n        require(block.timestamp < end_date, \"Current time is after end time\");\r\n        _;\r\n    }\r\n\r\n    function validate_voter(\r\n        string memory voter_id,\r\n        bool valid,\r\n        address _voter_address\r\n    ) public oracle_only only_started {\r\n        require(\r\n            voters[voter_id].validator_list[msg.sender] != true,\r\n            \"Already validate this voters\"\r\n        );\r\n\r\n        voters[voter_id].validator_list[msg.sender] = valid;\r\n\r\n        if (\r\n            calculate_consensus(voters[voter_id].validator_list) >=\r\n            min_consensus\r\n        ) {\r\n            voters[voter_id].validated = true;\r\n        }\r\n\r\n        if (msg.sender == designated_voter_address_repo) {\r\n            voters[voter_id].voter_address = _voter_address;\r\n        }\r\n    }\r\n\r\n    function calculate_consensus(\r\n        mapping(address => bool) storage validator_list\r\n    ) private view returns (uint256) {\r\n        uint256 count = 0;\r\n        for (uint256 i = 0; i < oracles.length; i++) {\r\n            if (validator_list[oracles[i]]) {\r\n                count += 1;\r\n            }\r\n        }\r\n\r\n        return count;\r\n    }\r\n\r\n    function add_oracle(address oracle) public owner_only {\r\n        require(\r\n            !is_running,\r\n            \"Adding oracle after voting is started is not allowed\"\r\n        );\r\n\r\n        oracles.push(oracle);\r\n    }\r\n\r\n    function change_designated_address_repo(uint256 _index_of_oracles)\r\n        public\r\n        owner_only\r\n    {\r\n        designated_voter_address_repo = oracles[_index_of_oracles];\r\n    }\r\n\r\n    function start_voting() public {\r\n        require(\r\n            block.timestamp >= start_date,\r\n            \"Current time is before start time\"\r\n        );\r\n        require(block.timestamp < end_date, \"Current time is after end time\");\r\n        require(!is_running, \"Vote is already running\");\r\n\r\n        is_running = true;\r\n    }\r\n\r\n    function end_voting() public {\r\n        require(\r\n            block.timestamp > start_date,\r\n            \"Current time is before start time\"\r\n        );\r\n        require(block.timestamp > end_date, \"Current time is under end time\");\r\n        require(is_running, \"Vote is not running\");\r\n\r\n        is_running = false;\r\n        final_count();\r\n    }\r\n\r\n    function final_count() private {\r\n        for (uint256 i = 0; i < candidates.length; i++) {\r\n            candidates[i].vote_count = 0;\r\n        }\r\n\r\n        for (uint256 i = 0; i < voter_list.length; i++) {\r\n            Voter storage voter = voters[voter_list[i]];\r\n            if (voter.exist && voter.validated) {\r\n                candidates[voter.vote_for].vote_count += 1;\r\n            }\r\n        }\r\n    }\r\n\r\n    function add_voters(string memory voter_id)\r\n        public\r\n        voters_only\r\n        only_started\r\n    {\r\n        require(!voters[voter_id].exist, \"Voters already exist\");\r\n\r\n        voters[voter_id].exist = true;\r\n        voters[voter_id].voter_address = address(0);\r\n        voters[voter_id].validated = false;\r\n        voters[voter_id].vote_count = 1;\r\n        voters[voter_id].vote_for = 0;\r\n\r\n        voter_list.push(voter_id);\r\n\r\n        emit ValidateVoters(voter_id, msg.sender);\r\n    }\r\n\r\n    function vote(string memory voter_id, uint256 _vote_for)\r\n        public\r\n        only_started\r\n        voters_only\r\n    {\r\n        require(voters[voter_id].exist, \"Voter is not exist\");\r\n        require(\r\n            voters[voter_id].voter_address != address(0),\r\n            \"Voter address is not yet received\"\r\n        );\r\n        require(\r\n            voters[voter_id].voter_address == msg.sender,\r\n            \"You are not allowed to vote for someone else\"\r\n        );\r\n        require(\r\n            voters[voter_id].vote_count >= 1,\r\n            \"You don't have any vote allowed anymore\"\r\n        );\r\n        require(\r\n            _vote_for >= 0 && _vote_for < candidates.length,\r\n            \"Illegal choice\"\r\n        );\r\n\r\n        voters[voter_id].vote_count -= 1;\r\n        voters[voter_id].vote_for = _vote_for;\r\n\r\n        candidates[_vote_for].vote_count += 1;\r\n    }\r\n\r\n    function get_my_vote(string memory voter_id)\r\n        public\r\n        view\r\n        returns (bool validated, uint256 vote_for)\r\n    {\r\n        return (voters[voter_id].validated, voters[voter_id].vote_for);\r\n    }\r\n}\r\n",
  "sourcePath": "D:/Code/DisProve/smart-contract/contracts/Election.sol",
  "compiler": {
    "name": "solc",
    "version": "0.8.4+commit.c7e474f2.Emscripten.clang"
  },
  "schemaVersion": "3.3.4",
  "updatedAt": "2021-05-14T16:15:45.882Z",
  "networkType": "ethereum",
  "devdoc": {
    "kind": "dev",
    "methods": {},
    "version": 1
  },
  "userdoc": {
    "kind": "user",
    "methods": {},
    "version": 1
  }
}